:10000000805C012065BF000055C20000C9350000BA
:1000100073BF000073BF000073BF000073BF000018
:1000200000000000000000000000000073BF00009E
:1000300073BF0000000000000B350000410300000A
:10004000FBDA00002BDA0000B7DB000001DC000067
:10005000ADCC0000B3E80000FFE800007DE900003F
:10006000E1E90000000000000000000000000000C6
:100070000000000000000000000000000000000080
:100080000000000000000000000000000000000070
:100090000000000000000000000000000000000060
:1000A0000000000000000000000000000000000050
:1000B0000000000000000000000000000000000040
:1000C0000000000000000000000000000000000030
:1000D0000000000000000000000000000000000020
:1000E0000000000000000000000000000000000010
:1000F0000000000000000000000000000000000000
:1001000000000000000000000000000000000000EF
:1001100000000000000000000000000000000000DF
:1001200000000000000000000000000000000000CF
:1001300000000000000000000000000000000000BF
:1001400000000000000000000000000000000000AF
:10015000000000000000000000000000000000009F
:10016000000000000000000000000000000000008F
:10017000000000000000000000000000000000007F
:10018000000000000000000000000000000000006F
:10019000000000000000000000000000000000005F
:1001A000000000000000000000000000000000004F
:1001B000000000000000000000000000000000003F
:1001C000FFFFFFFFFFFFFFFFFFFFFFFFFFFFFFFF3F
:1001D000FFFFFFFFFFFFFFFFFFFFFFFFFFFFFFFF2F
:1001E000FFFFFFFFFFFFFFFFFFFFFFFFFFFFFFFF1F
:1001F000FFFFFFFFFFFFFFFFFFFFFFFFFFFFFFFF0F
:1002000010B5054C237833B9044B13B1044800E012
:1002100000BF0123237010BDB009002000000000C2
:10022000CCE30B0008B5034B1BB10349034800E0C6
:1002300000BF08BD00000000B4090020CCE30B00A3
:1002400080B483B000AF03463960FB7197F9073083
:10025000002B0ADB3B68DAB20C4997F90730120130
:10026000D2B20B4483F800230AE03B68DAB20849B3
:10027000FB7903F00F03043B1201D2B20B441A7650
:1002800000BF0C37BD465DF8047B704700E100E01D
:1002900000ED00E080B400AFBFF34F8F00BF064B0E
:1002A000DB6803F4E0620449044B1343CB60BFF303
:1002B0004F8F00BF00BFFDE700ED00E00400FA052E
:1002C00080B582B000AF78607B68013BB3F1807F7E
:1002D00001D301230FE00A4A7B68013B53600F21E1
:1002E0004FF0FF30FFF7ACFF054B00229A60044B44
:1002F00007221A60002318460837BD4680BD00BF9C
:1003000010E000E080B582B000AF03463960FB71B9
:10031000FFF7C0FF80B500AF074B1B68074AA2FB81
:1003200003239B091846FFF7CBFFFF214FF0FF3057
:10033000FFF786FF00BF80BD68510120D34D6210DA
:1003400080B500AF05F00AF803F0F4FB05F026F8DD
:1003500000BF80BD80B500AFFFF7DCFF074908484C
:1003600006F020F800F0DCFC01F062F9054805F029
:1003700049FF03F081FC00BF80BD00BF00000420E6
:10038000805C0120D060050080B582B000AF0346DC
:10039000FB71FB79022B05D1044B5B6819460448BD
:1003A0000CF044FD00BF0837BD4680BDFC1D0B00AE
:1003B0004453012080B483B000AF0346FB800A4958
:1003C000FB881B0A9BB21A46FB88DBB2120113445E
:1003D00051F82330C3F34003DBB218460C37BD4657
:1003E0005DF8047B704700BF0008084080B485B00A
:1003F00000AF03460A46FB8013467B711449FB8815
:100400001B0A9BB21A46FB88DBB21201134451F857
:100410002330FB60FB6823F0011323F44043FB60AF
:100420007B79FA681343BB600948FB881B0A9BB2BF
:100430001946FB88DBB2BA6842F0040209010B449A
:1004400040F8232000BF1437BD465DF8047B704799
:100450000008084080B485B000AF0023FB60EFF3D4
:1004600010837B607B68FB600123BB60BB6883F308
:10047000108800BF0D4B1B68002B05D10C4B0022D0
:10048000DA700B4B4022DA70084B1B680133074AC5
:100490001360FB683B603B6883F3108800BF00BFBC
:1004A0001437BD465DF8047B704700BFAC51012096
:1004B000000D084080B485B000AF0023FB60EFF36F
:1004C00010837B607B68FB600123BB60BB6883F3A8
:1004D000108800BF0F4B1B68002B04D00D4B1B680E
:1004E000013B0C4A13600B4B1B68002B05D10A4BD8
:1004F0000022DA70084B8022DA70FB683B603B68B0
:1005000083F3108800BF00BF1437BD465DF8047B3D
:10051000704700BFAC510120000D084080B483B08B
:1005200000AF78607B6840F20972934200F021814D
:100530007B6840F20972934200F227817B68B3F531
:10054000E16F00F018817B68B3F5E16F00F21D8167
:100550007B6840F20C52934200F217817B68B3F53E
:10056000A06F22D87B68B3F5826F80F00E817B6824
:10057000B3F5806F3AD27B6840F20532934200F2C5
:1005800004817B68B3F5407F5AD87B6840F20D2226
:10059000934200F2FA807B6840F20222934263D2D7
:1005A0007B680F2B00F2C880A0E07B68A3F20153A8
:1005B0000B2B00F2EA8001A252F823F0770700002B
:1005C0007B0700008B0700008B07000083070000FB
:1005D000870700008B0700008B0700008B070000D7
:1005E0008B07000087070000830700007B68A3F5E6
:1005F00080630F2B00F2C98001A252F823F000BFE4
:100600004B0700005F0700005B0700008307000046
:10061000870700008B0700008B0700008B07000096
:1006200067070000630700005F0700005B0700002A
:100630008B0700008B0700006F0700006B070000AE
:100640007B68A3F20133042B00F29F8001A252F8D1
:1006500023F000BF630700005F0700008B07000066
:100660006F0700006B0700007B68A3F202230B2BCF
:1006700000F28B8001A252F823F000BF5707000060
:10068000530700008B0700004F0700004B070000D6
:100690008B0700008B0700008B0700008B07000012
:1006A0008B07000057070000530700007B68A3F585
:1006B00080730B2B69D801A252F823F05307000076
:1006C0004F0700008B0700008B0700004F0700005A
:1006D0004B0700008B0700008B0700008B07000012
:1006E0008B070000570700005B0700007B680F2B9B
:1006F0004BD801A252F823F06307000067070000FF
:100700006B0700008B0700006F07000073070000F5
:10071000770700008B0700007B0700007F070000C1
:100720008B0700008B0700008B0700008B07000081
:100730008B0700007F0700007B68B3F5867F24D21B
:100740007B68B3F5807FB1D21FE000231FE0012357
:100750001DE002231BE0032319E0042317E0052317
:1007600015E0062313E0072311E008230FE0092317
:100770000DE00A230BE00B2309E00C2307E00D2317
:1007800005E00E2303E00F2301E04FF0FF3318468E
:100790000C37BD465DF8047B704700BF80B483B062
:1007A00000AF00237B601EE0144A7B681B011344EA
:1007B0004FF0FF321A60114A7B681B011344043367
:1007C00000221A700D4A7B681B0113440C3300226F
:1007D0001A600A4A7B681B011344083300221A601E
:1007E0007B6801337B607B680F2BDDDD00BF00BFC2
:1007F0000C37BD465DF8047B704700BFCC09002074
:1008000080B400AF054B064A1A60044B054A5A6093
:1008100000BFBD465DF8047B704700BFCC0A0020D6
:100820008C530120681E0B0080B586B000AFF860C5
:10083000B9601346FB71314931480CF0F7FA786121
:100840007B69002B09D02F4805F012FD2E4805F0DA
:100850000FFD2E4805F00CFD4DE0FB79042B30D048
:10086000042B48DC002B02D0012B15D043E0BB68E1
:100870009BB20122194622480CF009FB78617B6982
:10088000002B33D01F4805F0F3FC214805F0F0FCA5
:100890001E4805F0EDFC2EE0BB689BB20022194615
:1008A00017480CF0F4FA78617B69002B20D01548CA
:1008B00005F0DEFC174805F0DBFC144805F0D8FC19
:1008C00019E0BB689BB2402219460D480CF0DFFAD4
:1008D00078617B69002B0DD00A4805F0C9FC0E48F1
:1008E00005F0C6FC094805F0C3FC04E000BF02E0C7
:1008F00000BF00E000BF1837BD4680BDE41F0B00FD
:1009000044530120D8600500E8600500FC60050044
:10091000046105002C6105005061050080B586B0BA
:1009200000AFF860B9601346FB710123FB75FA79DB
:10093000FB7D9A4201D00023FB75FFF78BFDBB685E
:100940009BB2FA7D11461846FFF750FDFFF7B2FD46
:1009500000BF1837BD4680BD80B582B000AF78605B
:1009600039603B68B3F5316F02DA3B68002B0BDA74
:100970000B4805F07DFC0B4805F07AFC0A4805F0B1
:1009800077FC4FF0FF3306E03B689BB21846FFF759
:1009900011FD03465BB218460837BD4680BD00BF57
:1009A000D860050078610500FC60050080B586B060
:1009B00000AFF860B9601346FB71BB681846FFF7DB
:1009C000ADFD7861FB79012B3BD17B69002B6BDBA3
:1009D0007B690F2B68D8374A7B6952F83320354939
:1009E0007B69DB000B445B68194610460CF0B6F8D7
:1009F00003463B613B69002B0BD02F4805F038FCC8
:100A00002E4805F035FC2E4805F032FC4FF0FF3340
:100A10004BE0284A7B6952F8333018460CF004F951
:100A200003463B613B69002B3ED0234805F020FC88
:100A3000244805F01DFC224805F01AFC4FF0FF3356
:100A400033E0FB79002B2FD11A4A7B6952F83330FF
:100A500018460CF0FAF803463B613B69002B0BD0BB
:100A6000154805F005FC184805F002FC144805F08F
:100A7000FFFB4FF0FF3318E00E4A7B6952F833302A
:100A800018460CF0F3F803463B613B69002B0BD092
:100A9000094805F0EDFB0D4805F0EAFB084805F0B4
:100AA000E7FB4FF0FF3300E0002318461837BD4640
:100AB00080BD00BFCC0A0020D8600500946105000D
:100AC000FC600500C0610500EC61050018620500CE
:100AD00080B586B000AFF860B9603B601346FB712B
:100AE000BB681846FFF71AFD78617B69002B5CDB59
:100AF0007B690F2B59D802F0F1FC38612E4A7B69D3
:100B00001B0113441B687A699A421FD12A4A7B69E8
:100B10001B01134408331B683A689A4216D1264ACF
:100B20007B691B01134404331B78FA799A420DD177
:100B3000214A7B691B0113440C331B683A6A9A42B1
:100B400004D1386902F0CEFC002330E01A4A7B69F8
:100B50001B0113441B68B3F1FF3F05D0386902F055
:100B6000C1FC6FF0060322E0134A7B691B011344AA
:100B70007A691A60104A7B691B01134408333A688A
:100B80001A600D4A7B691B0113440433FA791A7009
:100B9000094A7B691B0113440C333A6A1A603869AD
:100BA00002F0A0FC00BF002301E04FF0FF33184625
:100BB0001837BD4680BD00BFCC09002080B584B089
:100BC00000AF786039603B681846FFF7A7FCF86013
:100BD000FB68002B34DBFB680F2B31D802F07EFC66
:100BE000B8601A4AFB681B0113441B68B3F1FF3F4E
:100BF00004D1B86802F076FC002323E0134AFB68B6
:100C00001B0113444FF0FF321A60104AFB681B01AE
:100C10001344083300221A600C4AFB681B0113447A
:100C2000043300221A70094AFB681B0113440C3379
:100C300000221A60B86802F055FC00BF002301E0F2
:100C40004FF0FF3318461037BD4680BDCC09002059
:100C500080B586B000AF78604FF0FF337B614FF016
:100C6000FF333B614FF0FF33FB60786804F0B4FD65
:100C70000346042B02D04FF0FF334CE07B681B7817
:100C8000502B03D07B681B78702B43D17B680133DA
:100C90001B782F2B3BD97B6801331B78392B36D837
:100CA0007B6801331B78303B1B023B617B6802335E
:100CB0001B782F2B28D97B6802331B78392B23D83C
:100CC0007B6803331B782F2B1BD97B6803331B787E
:100CD000392B16D87B6802331B78A3F130021346F8
:100CE0009B0013445B00FB607B6803331B78303B45
:100CF000FA681344FB603A69FB6813447B6100BFE8
:100D000008E04FF0FF3306E04FF0FF3303E04FF011
:100D1000FF3300E07B6918461837BD4680BDFFFFF2
:100D200080B500AFFFF73AFDFFF76AFD00220349E7
:100D300003480EF00FFB0346184680BD48620500CD
:100D40004462050080B582B000AF786004F006FB15
:100D50007B685B687A6852680D4912010A44126820
:100D600093420FD17B685B68094A1B011344083327
:100D70001B687A685268064912010A440C321268EC
:100D80001046984704F00AFB00BF0837BD4680BDF7
:100D9000CC09002080B582B000AF786004F0DEFAA4
:100DA0007B681B79012B03D10221044804F0DCF895
:100DB00004F0F4FA00BF0837BD4680BD4C0B00209C
:100DC00080B586B002AF786039600023FB603B6875
:100DD00003331B78302B0BD107F10C0300934FF03A
:100DE000FF3306220121786804F0A0FA034612E0DE
:100DF0003B6803331B78312B0BD107F10C030093B5
:100E00004FF0FF3306220221786804F08FFA034680
:100E100001E06FF0090318461037BD4680BD80B46D
:100E200085B000AF0346FB710723FB73FB79012BF1
:100E300002D10723FB730AE0FB79022B02D10F23B7
:100E4000FB7304E0FB79042B01D11F23FB73FB7BB5
:100E500018461437BD465DF8047B704780B588B0EE
:100E600000AFF860B9607A60FB68002B04D167229C
:100E70002449254805F05AFBBB68002B04D16822A1
:100E80002049224805F052FB7B68002B04D16922DF
:100E90001C491F4805F04AFB0023FB61FB681B6CE3
:100EA0000C3BBB61BB699B685B781846FFF7B7FFDB
:100EB0000346FB75BB695B68D868FB7D7A68B968D7
:100EC0000DF066F80346FB61FB69002B0ED011485C
:100ED00005F0CEF9BB695B6819460F4805F0C8F903
:100EE0000E4805F0C5F94FF0FF3306E0BB695B68BB
:100EF00019460B48FFF764FF7B6818462037BD464C
:100F000080BD00BF84640500646205007462050052
:100F10008862050090620500A4620500B8620500C1
:100F20004C0B002080B588B000AFF860B9607A60E3
:100F3000FB68002B04D17C222449254805F0F6FAF1
:100F4000BB68002B04D17D222049224805F0EEFA2F
:100F50007B68002B04D17E221C491F4805F0E6FA6D
:100F60000023FB61FB681B6C0C3BBB61BB699B688E
:100F70005B781846FFF753FF0346FB75BB695B6858
:100F8000D868FB7D7A68B9680CF0EEFF0346FB6118
:100F9000FB69002B0ED0114805F06AF9BB695B684C
:100FA00019460F4805F064F90E4805F061F94FF055
:100FB000FF3306E0BB695B6819460B48FFF700FF8B
:100FC0007B6818462037BD4680BD00BF9864050089
:100FD00064620500C0620500886205009062050039
:100FE000D4620500B86205004C0B002090B589B0B2
:100FF00002AF786039607B68002B04D191222849C8
:10100000284805F093FA3B68002B04D1922224492A
:10101000254805F08BFA3B689B68002B04D193228E
:101020001F49224805F082FA00237B617B681B6C14
:101030000C3B3B613B699B685B781846FFF7EFFE12
:101040000346FB733B695B68D8683B6819683B687B
:101050005A683B689C68FB7B009323460CF0ACFF0E
:1010600003467B617B69002B0ED0114805F000F927
:101070003B695B6819460F4805F0FAF80E4805F021
:10108000F7F84FF0FF3307E03B695B6819460B4800
:10109000FFF796FE3B689B6818461C37BD4690BD1F
:1010A000A864050064620500E8620500F8620500B6
:1010B000906205000C630500B86205004C0B00202F
:1010C00080B586B000AF786039607B68002B04D1B2
:1010D000A8223249324805F029FA3B68002B04D196
:1010E000A9222E492F4805F021FA00237B617B6855
:1010F0001B6C0C3B3B613B685B78DB08FB73FB7B49
:10110000012B0AD0FB7B022B07D0FB7B042B04D0E6
:10111000B0222249244805F009FA3B685B78DB08D5
:10112000DAB23B685A703B693A689A603B695B681F
:101130009B681B6ABB607B68DB6C012118460EF064
:10114000BBF93B699B685A68BB6807331946104670
:101150000CF046FF3B695B68DA683B695B689B683B
:10116000194610460CF0C4FE03467B617B69002BD8
:101170000ED00E4805F07CF83B695B6819460C48B8
:1011800005F076F80B4805F073F84FF0FF3300E0F8
:10119000002318461837BD4680BD00BFC064050057
:1011A0006462050028630500406305009062050045
:1011B00078630500B862050080B584B000AF786040
:1011C00039607B68002B04D1C9224F494F4805F094
:1011D000ADF97B681B6C002B04D1CA224A494C48EC
:1011E00005F0A4F93B68002B04D1CB2246494948BD
:1011F00005F09CF90023FB603B681B7C03F00103B6
:10120000DBB2002B1FD07B6893F8443003F020033F
:10121000002B18D17B68DB6CB3F1FF3F13D07B68E8
:1012200093F8443003F01003002B06D07B68DB6C8E
:10123000012118460EF040F905E07B68DB6C0021C7
:1012400018460EF039F93B689B68002B30D03B689C
:101250001B68002B0DD13B685B68002B09D03B68F5
:1012600059683B689B681A467868FFF75BFEF86030
:101270001EE03B681B68002B0DD03B685B68002BB1
:1012800009D13B6819683B689B681A467868FFF784
:10129000E5FDF8600CE03B681B68002B08D03B685C
:1012A0005B68002B04D039687868FFF79FFEF86010
:1012B0003B681B7C03F00203DBB2002B1FD07B6872
:1012C00093F8443003F02003002B18D17B68DB6CCB
:1012D000B3F1FF3F13D07B6893F8443003F0100361
:1012E000002B06D07B68DB6C002118460EF0E4F87A
:1012F00005E07B68DB6C012118460EF0DDF8FB6829
:1013000018461037BD4680BDD464050088630500CB
:101310009C630500B463050080B582B000AF002374
:10132000FB713AE0FB79FA791B012A4919442A48F2
:1013300013465B0113449B00034404331960FA799C
:1013400013465B0113449B000833234A1344181DC2
:10135000FB791B011F4A1344204A19460FF044FC35
:1013600038603B68002B15D01D4804F081FFFA79E6
:10137000194913465B0113449B000B4404331B685B
:101380001946184804F074FF174804F071FF4FF035
:10139000FF331AE0FB790133FB71FB79002BC1D0DD
:1013A00001221249124803F0A7FD0346002B0BD07F
:1013B0000B4804F05DFF0F4804F05AFF0A4804F0A0
:1013C00057FF4FF0FF3300E0002318460837BD46B3
:1013D00080BD00BF800100206C0B00207C640500F4
:1013E00090620500C8630500B8620500E06305006F
:1013F0004C0B0020E863050080B485B000AF104AB4
:101400003B1D07CA83E807000E4B44333A1D07CA49
:1014100083E807000B4B0022A3F86020094A936C75
:101420004FF4807161F399239364064B0022A3F873
:101430004C2000BF1437BD465DF8047B704700BFE9
:10144000E8640500F00B002080B584B000AF786040
:1014500039607B68002B04D1CC221749174805F06E
:1014600065F83B68002B04D1CD221349144805F0E0
:101470005DF80023FB607B68BB60BB68002B04D178
:10148000D2220D490F4805F051F8BB685B6E5A68CF
:10149000BB685B6E9B68194610460CF0AFF8F860AD
:1014A000FB68002B02D04FF0FF3300E0002318460A
:1014B0001037BD4680BD00BF74650500F4640500AB
:1014C000086505001865050080B485B000AFF860B8
:1014D000B9607A60002318461437BD465DF8047B76
:1014E0007047FFFF80B584B000AF78600B46FB709B
:1014F0007B68002B04D1E5221149124805F016F84B
:101500007B68FB60FB68002B04D1E8220C490E4885
:1015100005F00CF8FB685B6E5B68BB60BB681B6A20
:10152000FA78DA7000BFBB681B6A1B79C3F38003CB
:10153000DBB2002BF7D0002318461037BD4680BD24
:1015400088650500F46405001865050080B483B063
:1015500000AF7860002318460C37BD465DF8047B69
:101560007047FFFF80B586B000AFF860B9607A6061
:101570003B60FB68002B04D1FE220C490C4804F0B0
:10158000D5FFBB68002B04D1FF220849094804F0AD
:10159000CDFFFB687B613B681A460621F868FFF7C0
:1015A00093FF7B6818461837BD4680BD98650500D7
:1015B000F46405002865050080B584B000AF78604C
:1015C00003F0CCFE164BFB60FB68002B05D14FF4FB
:1015D000D7721449144804F0A9FF7B681B79042BC7
:1015E00017D1FB681B6DBB60BB68002B05D14FF4A6
:1015F000DA720C490D4804F099FFBA687B689B6861
:10160000DBB2194610460DF095FD0121F8680FF088
:10161000D1F903F0C3FE00BF1037BD4680BD00BF47
:10162000F00B0020AC650500F4640500386505008A
:1016300080B584B000AF0023FB6001237B60FFF71F
:10164000DBFE0023BB6037E0BA6813465B0013443F
:101650009B001E4A1A441E49BB68682000FB03F326
:101660000B4464331A601A4ABB68682101FB03F318
:1016700013444033174A1A60BB68682202FB03F325
:10168000134A9818124ABB68682101FB03F31344FC
:1016900064331B681968002303220FF041F9F860D6
:1016A000FB68002B05D040F207220B490B4804F0E1
:1016B0003DFFBB680133BB60BB687A689A42C3D800
:1016C000FB6818461037BD4680BD00BF9001002062
:1016D000F00B002060650500C06505004C65050045
:1016E00080B483B000AF78607B681B687A689A42E8
:1016F0000CBF01230023DBB218460C37BD465DF852
:10170000047B704780B485B000AF78600023FB6035
:101710007B68BB6005E0BB681B68BB60FB6801338E
:10172000FB60BB681B687A689A42F4D1FB68184674
:101730001437BD465DF8047B7047FFFF80B500AFEE
:10174000024804F095FD0023184680BDD4650500CD
:1017500080B500AF04F05AF80023184680BDFFFFA3
:1017600080B582B000AF786002E0064804F080FDEA
:101770007B685A1E7A60002BF7D100BF00BF083784
:10178000BD4680BDDC65050080B586B000AFF86061
:101790007A603B600B46FB72FB7A184605F0DCFA78
:1017A00078617B6904333B61FB683A691A60FB68C6
:1017B000FA7A1A72FB687A685A60FB683A68DA60EB
:1017C000FB6800221A6100BF1837BD4680BD80B596
:1017D0008AB000AF7860396000237B623B680022EA
:1017E0001A613B68DB68002B03D03B681B7A002B37
:1017F00001D1002347E03B681B687B617B68002BBD
:1018000004D17B693B6201237B6201E07B683B6220
:1018100001F064FE38617B6A002B0FD13B6A0C3B00
:10182000FB60FB681B7A23F080033A68127A9342CC
:1018300004D0386901F056FE002324E00023BB6188
:101840003B685B68FB613B6A1B683B623A6A7B6989
:101850009A4202D100233B620EE0BB690133BB61B7
:10186000FB691A1DFA613A6A1A603B68DB68BA695B
:101870009A4200D0E7E700BF386901F033FE3B68C9
:10188000BA691A613B6A18462837BD4680BDFFFF1A
:101890002DE9F041BCB002AF0023C7F8E430784B2B
:1018A000C7F8D83007F1900207F1B00008230121F2
:1018B000FFF76AFF0823C7F8D430D7F8D830D7F835
:1018C000D420D7F8D4106F4804F0D2FCD7F8D40055
:1018D000FFF746FF6C4804F0CBFC07F1B003194654
:1018E000D7F8E400FFF773FFC7F8E4000023C7F858
:1018F000E030B2E0D7F8E0309B00E8333B4453F8E7
:10190000583C0C3BC7F8D03001F0E8FDC7F8CC00DC
:10191000D7F8D0301B7A23F0800397F8B820934291
:1019200004D0D7F8CC0001F0DDFD91E03B1D8C2206
:10193000D7F8D010184603F023FED7F8CC0001F0FA
:10194000D1FDD7F8D030C7F8C830D7F8C820D7F8BD
:10195000C83093F83530009313460822D7F8D410D6
:101960004A4804F085FCD7F8C83093F8343003F0C7
:10197000070387F8C73097F8C730022B03D14448D4
:1019800004F076FC20E097F8C73003F00403002B46
:1019900003D0404804F06CFC16E097F8C730002BE9
:1019A00003D13D4804F064FC0EE097F8C730012BEA
:1019B00003D13A4804F05CFC06E097F8C730032BEB
:1019C00002D1374804F054FCD7F8C8309B6AC7F8F6
:1019D000DC3004E0D7F8DC300133C7F8DC30D7F86E
:1019E000DC301B78232BF5D0D7F8C830DA6AD7F86B
:1019F000C8309B6A1946D7F8C830DB69CB1AD518AE
:101A0000D7F8C830DE6AD7F8C830DA6AD7F8C830F5
:101A10009B6A1946D7F8DC30CB1A1344642203FBC7
:101A200002F2D7F8C830DB6AB2FBF3F8D7F8C83057
:101A30005C6DD7F8C8301B6B184603F0E3FC034617
:101A400001930094434632462946164804F010FCA0
:101A5000D7F8E0300133C7F8E030D7F8C030D7F816
:101A6000E0209A42FFF646AFD7F8E430002B7FF42F
:101A700034AF00231846E837BD46BDE8F08100BF0B
:101A8000E0650500E8650500306605007066050044
:101A90007C6605008866050094660500A066050062
:101AA000AC660500B866050080B584B000AF78600C
:101AB0007B681B68FB6013E0FB68143BBB60BB6882
:101AC0001A4608210B4804F0D3FBFB681B687A68B0
:101AD0009A4202D0084804F0CBFBFB681B68FB600D
:101AE000FA687B689A42E7D100BF00BF1037BD4655
:101AF00080BD00BFE0660500E8660500B0B596B0A1
:101B000002AF0023FB64404B7B643A4607F12000A0
:101B100008230221FFF738FE08233B647B6C3A6CF4
:101B2000396C3A4804F0A4FB386CFFF719FE3848CA
:101B300004F09EFB07F120031946F86CFFF747FEFF
:101B4000F8640023BB6453E0BB6C9B0050333B4400
:101B500053F8503C0C3BFB6301F0C0FCB863FB6BDB
:101B60001B7A23F0800397F82820934203D0B86BA8
:101B700001F0B8FC39E0B86B01F0B4FCFB6B7B639F
:101B80007B6B14331846FFF7ABFD0346002B1AD1CD
:101B90007C6B7B6B9B8B1D467B6B14331846FFF76E
:101BA000B1FD03460193009523460822396C19487C
:101BB00004F05EFB7B6B14331846FFF775FF164885
:101BC00004F056FB11E07C6B7B6B9B8B1D467B6BA3
:101BD00014331846FFF796FD0346019300952346FC
:101BE0000822396C0D4804F043FBBB6C0133BB6425
:101BF0003B6BBA6C9A42A7DBFB6C002B9AD100239B
:101C000018465037BD46B0BDEC660500F8660500C5
:101C1000146705002C6705003C6705004067050058
:101C2000B0B596B002AF0023FB643C4B7B643A46F0
:101C300007F1200008230421FFF7A6FD08233B64D9
:101C40007B6C3A6C396C364804F012FB386CFFF749
:101C500087FD344804F00CFB07F120031946F86CAB
:101C6000FFF7B5FDF8640023BB644AE0BB6C9B0042
:101C700050333B4453F8503C0C3BFB6301F02EFCCB
:101C8000B863FB6B1B7A23F0800397F828209342FC
:101C900003D0B86B01F026FC30E0B86B01F022FCF9
:101CA000FB6B7B637B6B14331846FFF719FD034610
:101CB000002B19D17D6B7B6BDC697B6B1433184671
:101CC000FFF720FD0346019300942B460822396C50
:101CD000154804F0CDFA7B6B14331846FFF7E4FE89
:101CE000124804F0C5FA09E07A6B7B6BDB6900935C
:101CF00013460822396C0E4804F0BAFABB6C013363
:101D0000BB643B6BBA6C9A42B0DBFB6C002BA3D17B
:101D1000002318465037BD46B0BD00BF50670500D0
:101D2000586705007C6705009C6705003C67050057
:101D3000B4670500F0B59DB006AF00237B654D4B41
:101D4000FB6407F1080207F1280008230321FFF7CD
:101D50001BFD0823BB64FB6CBA6CB96C464804F0ED
:101D600087FAB86CFFF7FCFC444804F081FA07F1ED
:101D700028031946786DFFF72AFD786500233B6537
:101D80006BE03B6D9B00503307F10802134453F89E
:101D9000503C0C3B7B6401F0A1FB38647B6C1B7AEC
:101DA00023F0800397F83020934203D0386C01F081
:101DB00099FB4FE0386C01F095FB7B6CFB63FB6B90
:101DC00014331846FFF78CFC0346002B25D1FC6B1F
:101DD000FB6B1B6A1D46FB6B9B7F1E46FB6B5B7F91
:101DE0007B60FB6B14331846FFF78CFC03460493AF
:101DF0007B680393029601950823009323460822EB
:101E0000B96C1F4804F034FAFB6B14331846FFF723
:101E10004BFE1C4804F02CFA1CE0FC6BFB6B1B6AAD
:101E20001D46FB6B9B7F1E46FB6B5B7F7B60FB6BEA
:101E300014331846FFF766FC034604937B6803934C
:101E4000029601950823009323460822B96C0E4898
:101E500004F00EFA3B6D01333B65BB6B3A6D9A4261
:101E60008FDB7B6D002B82D1002318465C37BD468B
:101E7000F0BD00BFC8670500D06705000068050019
:101E8000286805003C67050048680500F0B599B072
:101E900004AF0023FB64444B7B643A4607F1200007
:101EA00008230521FFF770FC08233B647B6C3A6C28
:101EB000396C3E4804F0DCF9386CFFF751FC3C48C3
:101EC00004F0D6F907F120031946F86CFFF77FFC00
:101ED000F8640023BB645BE0BB6C9B0050333B4465
:101EE00053F8503C0C3BFB6301F0F8FAB863FB6B12
:101EF0001B7A23F0800397F82820934203D0B86B15
:101F000001F0F0FA41E0B86B01F0ECFAFB6B7B6397
:101F10007B6B14331846FFF7E3FB0346002B1ED1FF
:101F20007C6B7B6B5B8C1D467B6B1B8C1E467B6BC3
:101F300014331846FFF7E6FB03460293019600951B
:101F400023460822396C1B4804F092F97B6B14334A
:101F50001846FFF7A9FD184804F08AF915E07C6BD4
:101F60007B6B5B8C1D467B6B1B8C1E467B6B143323
:101F70001846FFF7C7FB03460293019600952346D8
:101F80000822396C0D4804F073F9BB6C0133BB6453
:101F90003B6BBA6C9A429FDBFB6C002B92D1002307
:101FA00018465437BD46F0BD6868050070680500E6
:101FB00094680500B06805003C670500C868050026
:101FC000B0B596B002AF0023FB64404B7B643A4649
:101FD00007F1200008230621FFF7D6FB08233B6406
:101FE0007B6C3A6C396C3A4804F042F9386CFFF774
:101FF000B7FB384804F03CF907F120031946F86CA8
:10200000FFF7E5FBF8640023BB6453E0BB6C9B0067
:1020100050333B4453F8503C0C3BFB6301F05EFAF9
:10202000B863FB6B1B7A23F0800397F82820934258
:1020300003D0B86B01F056FA39E0B86B01F052FAF0
:10204000FB6B7B637B6B14331846FFF749FB03463E
:10205000002B1AD17C6B7B6B9B8C1D467B6B1433E6
:102060001846FFF74FFB03460193009523460822CD
:10207000396C194804F0FCF87B6B14331846FFF7F1
:1020800013FD164804F0F4F811E07C6B7B6B9B8C1D
:102090001D467B6B14331846FFF734FB0346019350
:1020A000009523460822396C0D4804F0E1F8BB6C1A
:1020B0000133BB643B6BBA6C9A42A7DBFB6C002B11
:1020C0009AD1002318465037BD46B0BDE0680500E0
:1020D000EC6805000C690500246905003C670500F3
:1020E0003869050080B596B002AF0023FB643D4B14
:1020F0007B643A4607F1200008230A21FFF744FBDE
:1021000008233B647B6C3A6C396C374804F0B0F8B8
:10211000386CFFF725FB354804F0AAF807F12003D7
:102120001946F86CFFF753FBF8640023BB6445E0E5
:10213000BB6C9B0050333B4453F8503C0C3BFB635F
:1021400001F0CCF9B863FB6B1B7A23F0800397F89E
:102150002820934203D0B86B01F0C4F92BE0B86B90
:1021600001F0C0F9FB6B7B63796B7B6B5B6A7A6B0D
:10217000926A019200930B460822396C1C4804F0C5
:1021800077F87B6B5B7A03F00103002B03D01948CF
:1021900004F06EF802E0184804F06AF87B6B5B7A92
:1021A00003F00203002B03D0144804F061F802E0AE
:1021B000134804F05DF8BB6C0133BB643B6BBA6C35
:1021C0009A42B5DBFB6C002BA8D101F0A7FC0346BB
:1021D00019460C4804F04CF8002318465037BD4609
:1021E00080BD00BF4C690500546905008869050081
:1021F000B8690500D0690500E0690500F0690500CF
:10220000FC690500086A050080B598B002AF00239C
:102210007B65364BBB643A1D07F124000823092176
:10222000FFF7B2FA08237B64BB6C7A6C796C304898
:1022300004F01EF8786CFFF793FA2E4804F018F8B3
:1022400007F124031946786DFFF7C1FA786500237A
:10225000FB643FE0FB6C9B0058333B4453F8543C19
:102260000C3B3B6401F03AF9F8633B6C1B7A23F0BA
:10227000800397F82C20934203D0F86B01F032F9D9
:1022800025E0F86B01F02EF93B6CBB631A4B3B6504
:10229000BB6B1B7D1E2B0ED8BB6B1B7D1A46174BD1
:1022A00053F82230002B06D0BB6B1B7D1A46134B14
:1022B00053F822303B65BA6BBB6B9B7E01933B6D41
:1022C000009313460822796C0D4803F0D1FFFB6C94
:1022D0000133FB647B6BFA6C9A42BBDB7B6D002B9A
:1022E000AED1002318465837BD4680BDC46B0500EB
:1022F000CC6B0500F46B0500186C0500B06D050093
:10230000206C050080B582B000AF786039607B68D2
:10231000022B68D13B6804331B684A49184653F0C6
:102320003DFB0346002B02D1FFF7B2FA59E03B68B0
:1023300004331B684449184653F030FB0346002B16
:1023400002D1FFF7CFFE4CE03B6804331B683F49E6
:10235000184653F023FB0346002B02D1FFF7CEFBB8
:102360003FE03B6804331B683949184653F016FBBD
:102370000346002B02D1FFF753FC32E03B680433E5
:102380001B683449184653F009FB0346002B02D161
:10239000FFF7D0FC25E03B6804331B682E49184644
:1023A00053F0FCFA0346002B02D1FFF76FFD18E053
:1023B0003B6804331B682949184653F0EFFA03467B
:1023C000002B02D1FFF7FCFD0BE03B6804331B68D8
:1023D0002349184653F0E2FA0346002B05D1FFF7D4
:1023E00013FF002329E000BF00E000BF1D4803F0F9
:1023F0003FFF1D4803F03CFF12491C4803F038FF23
:1024000011491B4803F034FF10491A4803F030FF0C
:102410001049194803F02CFF0D49184803F028FF14
:102420000D49174803F024FF0C49164803F020FF1C
:102430000B49154803F01CFF002318460837BD461A
:1024400080BD00BFE06505004C690500346C0500E7
:1024500050670500C867050068680500E06805006A
:10246000C46B0500386C0500506C05005C6C050001
:10247000786C0500946C0500B46C0500D06C050008
:10248000EC6C0500086D05002C6D050080B584B06E
:1024900000AF786039600F4803F0EAFE0E4B1B680E
:1024A000FB600AE0FB681968FB685B681A460B482A
:1024B00003F0DEFEFB680C33FB60094B1B68FA6817
:1024C0009A42EFD3074803F0D3FE00231846103793
:1024D000BD4680BD2C6E0500580C0020486E0500DE
:1024E0005C0C0020546E050080B582B000AF7860AF
:1024F0003960FFF7CDF9002318460837BD4680BD87
:1025000080B586B000AF7860396000237B6100231E
:102510003B610023FB6007F10C0207F1100107F19A
:102520001403184603F0ECFF7B6919460C4803F0CE
:102530009FFE3B6919460B4803F09AFEFB6819465B
:10254000094803F095FE7A693B69D31A1946074892
:1025500003F08EFE002318461837BD4680BD00BF2D
:10256000586E0500686E0500786E0500886E0500DF
:1025700080B588B000AFF860B9607A60FB68FB6135
:102580000023BB6100237B6194E0FB6900221A7089
:10259000FB690133FB61BB690133BB61FB691B78DC
:1025A000202B03D0FB691B78092B03D1BA69BB68C8
:1025B0009A42EAD37B69092B19D9464803F058FEA1
:1025C00000233B610BE03B699B007A6813441B6866
:1025D0001946414803F04CFE3B6901333B613A69BF
:1025E0007B699A42EFD33D4803F042FE6DE0BA6941
:1025F000BB689A4264D2FB691B78222B3AD1FB69F3
:102600000133FB61BB690133BB617B699B007A6865
:102610001344FA691A607B6901337B6114E0FB693A
:102620001B785C2B0AD1FB6901331B78222B05D167
:10263000FB690133FB61BB690133BB61FB6901339A
:10264000FB61BB690133BB61FB691B78222B03D0A3
:10265000BA69BB689A42E2D3BA69BB689A4231D27E
:10266000FB6900221A70FB690133FB61BB6901330E
:10267000BB611FE07B699B007A681344FA691A60AA
:102680007B6901337B6105E0FB690133FB61BB6959
:102690000133BB61FB691B78202B07D0FB691B78DA
:1026A000092B03D0BA69BB689A42EDD3BA69BB68FB
:1026B0009A4209D2BA69BB689A42FFF46FAF04E04C
:1026C00000BF02E000BF00E000BF7B691846203772
:1026D000BD4680BD986E0500B86E0500546E0500BD
:1026E00080B584B000AF786039600023BB60134BC5
:1026F0001B68FB6017E0FB681B683A68796818463E
:1027000053F0E4FA0346002B0AD1FB681A683B68D1
:1027100013441B78002B03D1FB689B68BB6007E068
:10272000FB680C33FB60064B1B68FA689A42E2D3E5
:10273000BB6818461037BD4680BD00BF580C00204E
:102740005C0C002080B592B000AFF860B9607A6090
:1027500000237B64FB68002B05D140F211122B494A
:102760002B4803F0E3FE7B68002B09D14FF48972FC
:102770002649284803F0DAFE02E07B6C01337B64D3
:10278000FA687B6C13441B78202B09D0FA687B6CA9
:1027900013441B78092B03D07A6CBB689A42ECD3A4
:1027A0007B6C002B02D14FF0FF332AE07B6C194683
:1027B000F868FFF795FF38643B6C002B02D14FF0AF
:1027C000FF331EE007F1140328220021184602F00F
:1027D00073FE07F114031A46B968F868FFF7C8FEDC
:1027E000F863FB6B002B02D14FF0FF3309E007F1D8
:1027F00014023B6C1146F86B984702467B681A60DE
:10280000002318464837BD4680BD00BF546F050001
:10281000BC6E0500C06E050080B584B000AF786066
:10282000396005E07B6801337B603B68013B3B60BE
:102830003B68002B07D07B681B78202BF2D07B688D
:102840001B78092BEED03B68002B01D1002322E03E
:1028500007F108031A4639687868FFF773FF0346E3
:10286000002B01D1BB6816E07B68FB6002E0FB68CF
:102870000133FB60FB681B78202B03D0FB681B78BF
:10288000002BF4D1FB6800221A707968044803F029
:10289000EFFC4FF0FF3318461037BD4680BD00BF38
:1028A000C86E050080B485B000AF786039607B6881
:1028B000FB6005E0FB680133FB603B6801333B6074
:1028C000FB681B78002B09D03B681B78002B05D0D8
:1028D000FB681A783B681B789A42EBD0FA687B68F1
:1028E000D31A18461437BD465DF8047B7047FFFFC6
:1028F00080B588B000AF78600023FB610023BB6126
:102900007B681B78002B04D100210020FFF7BEFD5F
:102910003DE0204B1B687B612AE07B691B683B61C3
:10292000786853F077F903461A463969786853F0A6
:10293000CDF90346002B18D1FB69002B06D13B696A
:10294000BB61B86953F066F90346FB613969B86940
:10295000FFF7A8FFF860FA68FB699A4201DAFB68A2
:10296000FB6139690C4803F083FC7B690C337B61A4
:102970000A4B1B687A699A42CFD3BB69002B05D0FA
:10298000FB691A46B969786802F0A8FE00BF2037D3
:10299000BD4680BD580C0020E06E05005C0C002098
:1029A00080B483B000AF78607B68002B03D07B6875
:1029B0001B78002B01D100231FE07B681B782B2B99
:1029C00003D07B681B782D2B12D17B6801337B6091
:1029D0000EE07B681B7801330B4A13441B7803F02D
:1029E0000403002B01D1002307E07B6801337B60E7
:1029F0007B681B78002BECD1012318460C37BD46B1
:102A00005DF8047B704700BFC4E20B0080B500AFE7
:102A1000174B1B6893F8213003F00203DBB2002B45
:102A200004D1144B00221A70124B1FE0124B1B688A
:102A3000002B07D0104B1B68802219460D4853F01D
:102A400081F906E00B4B0D4A92E80300186004334D
:102A50001970084853F0DEF803461A46054B134434
:102A600007491A460B461B881380024B184680BD47
:102A7000600C0020680C0020640C0020646F0500CE
:102A80006C6F050080B582B000AF78600C4B1B689E
:102A9000002B04D190220B490B4803F047FD084B53
:102AA0001A687B6803F00103D9B292F8213061F310
:102AB000410382F8213000BF0837BD4680BD00BF0A
:102AC000600C0020F86F0500706F050080B582B0C3
:102AD00000AF0023FB701E4B1B68002B04D1A42207
:102AE0001C491D4803F022FD194B1B68D3F80C321A
:102AF0007B607B68002B1BD14FF0FF3323E0144B2E
:102B00001B684FF0FF31184601F0FAFD104B1B68AF
:102B1000D3F80C327A689A420AD00D4B1B68D3F86E
:102B20000C327B607B68002B02D14FF0FF330AE050
:102B3000FA1C01234FF0FF31786801F033FA0346A5
:102B4000012BDCD1FB7818460837BD4680BD00BF9D
:102B5000600C002010700500706F050080B582B019
:102B600000AF78603960094B1B68002B04D1C32289
:102B70000749084803F0DAFC044B1B68184601F0CB
:102B8000CFFD002318460837BD4680BD600C0020ED
:102B900020700500706F050080B584B000AF7860CC
:102BA0000023FB602D4B1B68002B04D1D6222C493F
:102BB0002C4803F0BBFC786801F00DF9F860FB6865
:102BC000002B04D17968284803F052FB42E0234BE4
:102BD0001B68D3F80C32FA689A423AD040F243119B
:102BE000F86801F005F90346002B33D11B4B1B6835
:102BF000D3F80C32002B0ED0184B1B68D3F80C32D4
:102C0000184601F081F9154B1B68D3F80C320021EE
:102C1000184601F04FFA114B1B6803F5DB73512284
:102C20000021184602F048FC0C4B1B680022A3F858
:102C300008220A4A1268B3F80832A2F80A32074B8F
:102C40001B68FA68C3F80C220849F86801F032FAE8
:102C500000E000BF1037BD4680BD00BF600C002003
:102C600030700500706F0500846F05005D2B00005B
:102C700080B582B000AF7860084803F0F9FA786850
:102C8000FFF736FEFFF7C2FE03467A68194604488E
:102C900003F0EEFA00BF0837BD4680BDA46F050003
:102CA000A86F050080B582B000AF7860084803F0D7
:102CB000DFFAFFF7ABFE01467B6803F5DB731A46CC
:102CC000044803F0D5FA002318460837BD4680BDF6
:102CD000B06F0500A86F050080B584B000AF7860C4
:102CE0007B68B3F80832002B00F09D807B689B8CDA
:102CF000042B51D97B6803F5B3707B6803F5DB7354
:102D00005022194652F052FD0346002B00F08B80F2
:102D10000023FB6019E0FA6813469B0013441B0173
:102D200020337A681344981DFB685A1C13469B0095
:102D300013441B0120337A6813440633502219468A
:102D400002F01EFCFB680133FB60FB68032BE2DD35
:102D5000FA6813469B0013441B0120337A6813441E
:102D6000063350220021184602F0A6FBFA681346EB
:102D70009B0013441B0120337A681344981D7B6821
:102D800003F5DB717B68B3F808321A4602F0F8FBF2
:102D90007B6805229A8446E07B689B8C002B14D0CC
:102DA0007B689B8C5A1E13469B0013441B012033E7
:102DB0007A681344981D7B6803F5DB73502219462B
:102DC00052F0F4FC0346002B2DD07B689A8C7B6874
:102DD0005A847B689B8C1A4613469B0013441B0144
:102DE00020337A681344063350220021184602F03B
:102DF00063FB7B689B8C1A4613469B0013441B01A4
:102E000020337A681344981D7B6803F5DB717B6877
:102E1000B3F808321A4602F0B3FB7B689B8C01338F
:102E20009AB27B689A847B689A8C7B685A8400BFCC
:102E30001037BD4680BDFFFF80B588B000AF786019
:102E4000934B1A6892F8213043F0010382F8213045
:102E50008F4B1B68D3F80C32002B09D103F0C6F955
:102E600038613B69002B03D03B691846FFF794FE9D
:102E7000FFF7CCFD0346184603F0FAF9FFF726FEEC
:102E8000F860FB68002BC0F2AC82FB681B2B05D1FD
:102E90007F4B1B68012283F82020ADE27C4B1B682E
:102EA00093F82030012B0ED1FB685B2B05D1784BBA
:102EB0001B68022283F820209EE2754B1B680022CB
:102EC00083F82020D6E0724B1B6893F82030022B49
:102ED00040F0D0806E4B1B68002283F82020FB68F6
:102EE000412B3DD16A4B1B685B8C002B33D0684B68
:102EF0001B685A8C013A92B25A84654B1B6803F5E1
:102F0000DB70634B1A68624B1B685B8C19460B467F
:102F10009B000B441B0120331344063350221946F7
:102F200002F02EFB5A4B1B6803F5DB73184652F078
:102F300071FE0246564B1B6892B2A3F80822544A0F
:102F40001268B3F80832A2F80A32514B1B681846CF
:102F5000FFF7A8FE50E24E4B1B6800225A844BE25A
:102F6000FB68422B4CD14A4B1B685B8C1A46484B82
:102F70001B689B8C013B9A4206DA454B1B685A8CB6
:102F8000013292B25A840DE0414B1B689B8C002B9E
:102F900000F029823E4B1B689A8C3D4B1B68013A1E
:102FA00092B25A843A4B1B6803F5DB70384B1A68AF
:102FB000374B1B685B8C19460B469B000B441B016F
:102FC0002033134406335022194602F0D9FA304B0D
:102FD0001B6803F5DB73184652F01CFE02462C4BAF
:102FE0001B6892B2A3F80822294A1268B3F8083283
:102FF000A2F80A32264B1B681846FFF753FEFBE186
:10300000FB68442B12D1224B1B68B3F80A32002B09
:1030100000F0EB811F4803F02BF91D4B1B68B3F840
:103020000A22013A92B2A3F80A22DEE1FB68432B9E
:1030300020D1174B1B68B3F80A22154B1B68B3F855
:1030400008329A4280F0D381114B1B68104A1268F3
:10305000B2F80A22134493F8B63119460E4803F029
:1030600007F90B4B1B68B3F80A22013292B2A3F89E
:103070000A22BCE1FB68002B00F0BB81FB68FF2B40
:1030800000F0B781FB68092B31D10023FB610BE015
:10309000600C0020B86F0500BC6F0500AC4803F061
:1030A000E7F8FB690133FB61AA4B1B68B3F80A32EE
:1030B0001A46FB699342F1DBA64B1B6803F5DB73F1
:1030C0001846FFF7D5FDA34B1B6803F5DB731846C5
:1030D00052F0A0FD02469F4B1B6892B2A3F8082253
:1030E0009C4A1268B3F80832A2F80A3284E1FB68FD
:1030F0007F2B02D0FB68082B7DD1964B1B68B3F861
:103100000A32002B00F07781924B1B68B3F808223B
:10311000013A92B2A3F808228E4B1B68B3F80A2238
:10312000013A92B2A3F80A228A4B1B68B3F808222C
:10313000884B1B68B3F80A329A424ED9854B1A68FD
:10314000844B1B68B3F80A3203F5D8731344981DF7
:10315000804B1A687F4B1B68B3F80A32013303F5C2
:10316000D8731344991D7B4B1B68B3F808321A4679
:10317000784B1B68B3F80A32D31A1A4602F06DFA7C
:10318000744B1B68734A1268B2F808221344002279
:1031900083F8B6216F4B1A686E4B1B68B3F80A327E
:1031A00003F5D8731344063319466B4803F060F8EF
:1031B000684B1B68B3F80A32BB6105E0644803F052
:1031C00057F8BB690133BB61624B1B68B3F8083227
:1031D0001A46BB699342F1DD0EE1604803F048F8FE
:1031E0005C4B1B685B4A1268B2F808221344002249
:1031F00083F8B62100E1FB680D2B02D0FB680A2B97
:1032000037D1544B1B681846FFF766FD514B1B68BE
:1032100093F8213003F00103DBB2002B02D05048B9
:1032200003F026F84B4B1B6803F5DB72494B1B6818
:10323000B3F8083219461046FFF7EEFAFFF7E6FB3F
:103240000346184603F014F8424B1B6803F5DB7382
:1032500051220021184602F02FF93E4B1B68002234
:10326000A3F808223B4A1268B3F80832A2F80A32DF
:10327000C2E0384B1B68B3F808324F2B04D9354BEA
:103280001B680022A3F80822324B1B68B3F80A22FD
:10329000304B1B68B3F808329A4265D22D4B1A683E
:1032A0002C4B1B68B3F80A32013303F5D87313446F
:1032B000981D284B1A68274B1B68B3F80A3203F590
:1032C000D8731344991D234B1B68B3F808321A4670
:1032D000204B1B68B3F80A32D31A1A4602F0BDF924
:1032E0001C4B1B681B4A1268B2F80A221146FA6886
:1032F000D2B20B4483F8B621164B1B6893F82130E9
:1033000003F00103DBB2002B0DD0124B1A68114BF6
:103310001B68B3F80A3203F5D87313440633194611
:10332000104802F0A5FF0B4B1B68B3F80A327B6113
:1033300005E0074802F09CFF7B6901337B61054B88
:103340001B68B3F808321A467B699342F1DB24E02C
:10335000B86F0500600C0020C06F0500C86F050045
:10336000A46F0500CC6F0500244B1B68234A12682C
:10337000B2F808221146FA68D2B20B4483F8B6219B
:103380001E4B1B6893F8213003F00103DBB2002BC6
:1033900003D0F9681A4802F06BFF0023FB60174B5B
:1033A0001B68B3F80822013292B2A3F80822134B2B
:1033B0001B68B3F80A22013292B2A3F80A220F4B1B
:1033C0001B68B3F808324F2B7FF658AD0B4B1B68C8
:1033D0000022A3F80822094B1B680022A3F80A2246
:1033E0004CE500BF4AE500BF48E500BF46E500BF29
:1033F00044E500BF42E500BF40E500BF600C00208F
:10340000BC6F050080B483B000AF78603960064AB5
:103410007B681360054A3B68136000BF0C37BD46EC
:103420005DF8047B704700BF580C00205C0C002046
:1034300080B584B002AF00237B601D491D48FFF7B3
:10344000E1FF4FF40471012003F01CF803461A4A0F
:103450001360194B1B68002B05D1184802F008FFB8
:103460004FF0FF3320E00A230193142300934FF41D
:10347000805300221249134804F058FB38600E4B69
:103480001B681846002300220F4901F021F8012093
:10349000FFF7F8FA3B68002B05D07B68002B02D1C0
:1034A000386804F08BFA002318460837BD4680BD03
:1034B0009C60050024600500600C0020D06F0500B2
:1034C000392E0000E86F0500F06F050080B500AFF1
:1034D00001F0D6FF0346184680BDFFFFEFF31080D2
:1034E00072B6704780F310887047464A1368012B04
:1034F00004D04FF001031360434A1060434A116047
:1035000043484FF0805101607047EFF3108272B66C
:103510003C48016851B34FF0000101603A4801682E
:1035200091B1EFF309811EF0100F08BF21ED108B50
:1035300021E9F00F4FF000041EF0100F08BF012426
:1035400041F8044D0068016030490968096808C9FC
:10355000B1E8F00F002B18BFB1EC108B81F3098894
:103560004EF0100E002B18BF2EF0100E82F31088B4
:103570004EF0040E704725490860EFF3148222F0E4
:10358000040282F3148820494FF0000008601D49AE
:103590004FF0010008601F481F49D0F8002041EAA1
:1035A000020101601A484FF0805101601B48006819
:1035B000006800BF80F3088861B662B6BFF34F8F22
:1035C000BFF36F8F704700BFEFF308801EF0040F4A
:1035D00001D0EFF3098020E9F00F40F804ED40F846
:1035E00004ED1EF0040F02D080F3098801E080F39F
:1035F000088800B500F0BAF95DF804EB4EF0040E4F
:1036000070470000F40C0020EC0C0020F00C0020AF
:1036100004ED00E020ED00E00000FFFF08ED00E019
:1036200080B489B000AFF860B9607A603B607B68B5
:103630000433BB61BB6923F00703BB61BB69443B37
:10364000BB61BB697B610023FB6108E0FB699B00F8
:103650007A691344154A1A60FB690133FB61FB69FF
:10366000102BF3D9BA687B695A627B6900229A628F
:103670007B690022DA627B6900221A637B6900227F
:103680005A633A687B699A63FA687B69DA637B6993
:103690004FF080721A647B6900221A60BB69184679
:1036A0002437BD465DF8047B704700BFEFBEADDE3A
:1036B00080B500AF254802F0DBFD254B1B889BB28F
:1036C0001946244802F0D4FD214B1B889BB203F01D
:1036D0000103002B02D0204802F0CAFD1C4B1B88BE
:1036E0009BB203F00203002B02D01C4802F0C0FD85
:1036F000174B1B889BB203F00403002B02D0184821
:1037000002F0B6FD124B1B889BB203F00803002B9E
:1037100002D0144802F0ACFD0D4B1B889BB203F4A1
:103720008073002B02D0104802F0A2FD084B1B88CA
:103730009BB203F40073002B02D00C4802F098FDFA
:103740000B4802F095FD00BF80BD00BF447005002E
:103750002AED00E0547005006C70050078700500DB
:10376000847005008C70050094700500A070050041
:10377000AC70050080B500AF264802F079FD264BFD
:103780001B78DBB21946254802F072FD224B1B78EC
:10379000DBB203F00103002B02D0214802F068FDE8
:1037A0001D4B1B78DBB203F00203002B02D01D4837
:1037B00002F05EFD184B1B78DBB203F00403002B14
:1037C00002D0194802F054FD134B1B78DBB203F012
:1037D0000803002B02D0154802F04AFD0E4B1B785F
:1037E000DBB203F01003002B02D0114802F040FDC1
:1037F000094B1B78DBB25BB2002B06DA0D4B1B6862
:1038000019460D4802F034FD02E00C4802F030FD8C
:1038100000BF80BDB070050029ED00E0BC70050060
:10382000D4700500E0700500EC700500FC70050028
:103830000871050038ED00E010710500AC7005005E
:1038400080B500AF214802F013FD214B1B78DBB29D
:103850001946204802F00CFD1D4B1B78DBB203F02B
:103860000103002B02D01C4802F002FD184B1B780C
:10387000DBB203F00203002B02D0184802F0F8FC80
:10388000134B1B78DBB203F00803002B02D0144863
:1038900002F0EEFC0E4B1B78DBB203F01003002BA2
:1038A00002D0104802F0E4FC094B1B78DBB25BB29B
:1038B000002B06DA0C4B1B6819460C4802F0D8FCAA
:1038C00002E00B4802F0D4FC00BF80BD207105006F
:1038D00028ED00E0347105004C71050058710500B9
:1038E000647105007071050034ED00E07C71050025
:1038F000AC70050080B500AF164B1B6803F00203E7
:10390000002B02D0144802F0B3FC124B1B6803F0EA
:103910008043002B14D0114B1B78DBB2002B01D05D
:10392000FFF728FF0E4B1B78DBB2002B01D0FFF70F
:1039300087FF0C4B1B889BB2002B01D0FFF7B8FE12
:10394000044B1B68002B02DA074802F091FC00BF11
:1039500080BD00BF2CED00E08C71050029ED00E07A
:1039600028ED00E02AED00E0A471050080B586B0E6
:1039700000AF78607B6828337B617B6804333B61F0
:10398000474B1B68002B07D0454B1B68786998474D
:10399000F860FB68002B7ED03B691B6C19464148E0
:1039A00002F066FC3B695B6A19463F4802F060FC26
:1039B0003B699B6A19463D4802F05AFC3B69DB6A49
:1039C00019463B4802F054FC3B691B6B19463948C9
:1039D00002F04EFC3B695B681946374802F048FC30
:1039E0003B699B681946354802F042FC3B69DB683D
:1039F0001946334802F03CFC3B691B6919463148C3
:103A000002F036FC3B695B6919462F4802F030FC36
:103A10003B699B6919462D4802F02AFC3B69DB692A
:103A200019462B4802F024FC3B691B6A19462948B9
:103A300002F01EFC3B695B6B1946274802F018FC3C
:103A40003B699B6B1946254802F012FC3B69DB6B16
:103A50001946234802F00CFC7B681B6803F0040342
:103A6000002B09D003F09EFF034619461D4802F0C3
:103A7000FFFBFDF70DFF02E01B4802F0F9FB7B683E
:103A80001B6803F01003002B02D1184802F0F0FB72
:103A9000FFF730FFFEE700BF1837BD4680BD00BF0F
:103AA000F80C0020B4710500C4710500D471050044
:103AB000E4710500F471050004720500147205003C
:103AC000247205003472050044720500547205002A
:103AD000647205007472050084720500947205001A
:103AE000A4720500B4720500D4720500F0720500DE
:103AF00080B483B000AF78607B6893FAA3F3B3FA25
:103B000083F37A68002A01D14FF0FF33013318465E
:103B10000C37BD465DF8047B7047FFFF80B400AFF3
:103B2000034B1B681846BD465DF8047B704700BF19
:103B3000FC0C002080B582B000AF1B4B1B68002B33
:103B400002D0194B1B689847FFF7C8FC7860174BE9
:103B50001B680133154A136003F024FF38603B688B
:103B60005B6D5A1E3B685A653B685B6D002B12D13A
:103B70003B681A6D3B685A653B6893F8343043F0F4
:103B80000803DAB23B6883F834207868FFF7AAFCB0
:103B900003F0ECFB02E07868FFF7A4FC04F0E6FD1C
:103BA00000BF0837BD4680BD000D0020FC0C002082
:103BB00080B485B000AF78607B68002B03DA4FF0EB
:103BC000FF33FB6027E07B68164A82FB03129211E9
:103BD000DB17D31A4FF47A7202FB03F3FB607A68A7
:103BE000104B83FB02139911D317CB1A4FF47A7140
:103BF00001FB03F3D31A4FF47A7202FB03F303F2CF
:103C0000E733084A82FB03129211DB17D31A1A46D4
:103C1000FB681344FB60FB6818461437BD465DF82B
:103C2000047B7047D34D621080B500AFFFF776FF7D
:103C30000346184680BD80B400AF00231846BD4639
:103C40005DF8047B704780B400AF00231846BD4682
:103C50005DF8047B704780B400AF00231846BD4672
:103C60005DF8047B704780B400AF00231846BD4662
:103C70005DF8047B7047FFFF80B582B000AF094B51
:103C80007B6005E07B681B6898477B6804337B603A
:103C90007B68054A9342F5D300BF00BF0837BD4695
:103CA00080BD00BFA0600500A860050080B582B09F
:103CB00000AF094B7B6005E07B681B6898477B6819
:103CC00004337B607B68054A9342F5D300BF00BF95
:103CD0000837BD4680BD00BFA8600500B460050080
:103CE00080B500AF00F036F80023184680BD80B5DF
:103CF00082B000AF7860FFF7D9FF0AF0B9FE00BFCD
:103D00000837BD4680BDFFFF80B584B002AF1423E5
:103D100001930A2300934FF40063002209490A48E3
:103D200003F004FF78607B68002B04D1D62207499A
:103D3000074802F0FBFB786803F040FE00BF08373D
:103D4000BD4680BDEF3C0000147305002C730500D8
:103D50001C73050080B500AFFFF7C0FBFCF7FAFA53
:103D600001F054FD04F042FE03F0BEFAFFF7CCFF71
:103D700004F056FE00F078FA03F0DAFA0023184651
:103D800080BD80B584B000AFF860B9601346FB8099
:103D9000FB68002B02D14FF0FF3318E0B86800F049
:103DA0001AF80346002B02D04FF0FF330FE0FB68F8
:103DB000BA680921184602F0F3FFFB68FA88DA8234
:103DC000FB6800229A76FB6800221A8300231846BB
:103DD0001037BD4680BD80B582B000AF7860092144
:103DE000786803F04FF9034618460837BD4680BD92
:103DF00080B584B000AF78600B467B800023FB6009
:103E00007B68002B04D1D0223A493B4802F08EFB5C
:103E10007B68184603F01CF90346092B04D0D12215
:103E20003449364802F082FB7B68DB8A03F01003DA
:103E3000002B1AD17B685B6A002B0FD07B685B6A12
:103E400078689847F860FB68002B07D07B68FA68B1
:103E500019462B4802F00CFAFB6847E07B68DB8AC6
:103E600043F010039AB27B68DA827B68DB8A03F046
:103E70000803002B08D07B681B8B03F00803002B82
:103E800002D06FF0060331E07B689B6A002B07D0FD
:103E90007B689B6A7A88114678689847F86007E0E3
:103EA0007B8823F0F0031B051B0D9AB27B681A83F5
:103EB000FB68002B03D0FB6813F1060F15D17B685C
:103EC0001B8B43F008039AB27B681A837B689B7E46
:103ED0000133DAB27B689A767B689B7E002B04D133
:103EE000FF220449074802F021FBFB6818461037FF
:103EF000BD4680BD34740500407305005073050055
:103F0000E87305002074050080B584B000AF7860C8
:103F10000023FB607B68002B05D14FF489721E499A
:103F20001E4802F003FB7B68184603F091F8034635
:103F3000092B05D040F213121749194802F0F6FA7E
:103F40007B689B7E002B02D14FF0FF331FE07B6824
:103F50009B7E013BDAB27B689A767B689B7E002B66
:103F600001D0002313E07B68DB6A002B04D07B6860
:103F7000DB6A78689847F860FB68002B03D0FB6821
:103F800013F1060F02D17B6800221A83FB681846E2
:103F90001037BD4680BD00BF447405004073050066
:103FA0005073050090B585B000AFF860B9607A60D5
:103FB0003B60FB68002B05D14FF4A07218491948EB
:103FC00002F0B4FAFB68184603F042F80346092BE6
:103FD00005D040F241121249134802F0A7FAFB68DB
:103FE0009B7E002B05D14FF0FF3001F027FA002314
:103FF00011E0FB681B6B002B08D0FB681C6B3B6857
:104000007A68B968F868A047034604E06FF00500D5
:1040100001F014FA002318461437BD4690BD00BFC6
:1040200054740500407305005073050090B585B0C9
:1040300000AFF860B9607A603B60FB68002B05D187
:1040400040F26B121849194802F070FAFB681846E2
:1040500002F0FEFF0346092B05D04FF4B672124959
:10406000134802F063FAFB689B7E002B05D14FF0EA
:10407000FF3001F0E3F9002311E0FB685B6B002BDC
:1040800008D0FB685C6B3B687A68B968F868A04741
:10409000034604E06FF0050001F0D0F90023184654
:1040A0001437BD4690BD00BF647405004073050021
:1040B0005073050080B582B000AF786039607B68CE
:1040C000002B05D140F2AB120C490D4802F02EFA3C
:1040D0007B68184602F0BCFF0346092B05D04FF45D
:1040E000D6720649074802F021FA7B683A68DA611D
:1040F000002318460837BD4680BD00BF7474050014
:10410000407305005073050080B483B000AF786041
:1041100039607B681B683A685A607B681A683B683C
:104120001A607B683A681A603B687A685A6000BF18
:104130000C37BD465DF8047B704780B483B000AF98
:1041400078607B681B687A6852685A607B685B6835
:104150007A6812681A607B687A685A607B685A6865
:104160007B681A6000BF0C37BD465DF8047B704762
:1041700080B582B000AF78607B681433194603487D
:10418000FFF7C2FF00BF0837BD4680BD9C0100207D
:1041900080B584B000AF0023FB600D4BBB60BB68F3
:1041A0001B68BA689A420ED0BB681B68143BFB6060
:1041B000FFF794F97860FB6814331846FFF7BDFFEA
:1041C0007868FFF78FF9FB6818461037BD4680BD49
:1041D0009C01002080B584B000AFFFF7D9FFF860E4
:1041E000FB68002B1FD0FB68D3F88430BB60F868F5
:1041F00002F010FF78607B68012B02D1F86802F0B2
:1042000031FEBB68002B02D0BB68F86898477B681A
:10421000002BE2D1FB689B6A184602F051F9F8685E
:1042200002F0BAFED9E700BF00BF1037BD4680BD1F
:1042300080B584B000AF78600023FB600CE0094AD1
:10424000FB6852F82330BB60BB68002B01D0BB6811
:104250009847FB680133FB60FB68032BEFD9FFF73E
:10426000B9FFE9E7900E002080B588B004AF0023C5
:10427000FB6028E0381DFB68174A082101F09CFF0D
:10428000FB688C2202FB03F3144A9818FB681B029C
:10429000134A1344391D202203921F2202924FF425
:1042A00080720192009300230E4A03F043FBFB68E7
:1042B0008C2202FB03F3094A1344184603F07EFBE9
:1042C000FB680133FB60FB68002BD3D000BF00BF4D
:1042D0001037BD4680BD00BF90740500040D00205E
:1042E000900D00203142000080B483B000AF7860B0
:1042F0007B687A685A607B685A687B681A6000BF7E
:104300000C37BD465DF8047B704780B483B000AFC6
:10431000786039607B681B683A685A607B681A6805
:104320003B681A607B683A681A603B687A685A6032
:1043300000BF0C37BD465DF8047B704780B483B086
:1043400000AF786039607B685B683A681A607B68A8
:104350005A683B685A607B683A685A603B687A687A
:104360001A6000BF0C37BD465DF8047B704780B40F
:1043700083B000AF78607B681B687A6852685A60C7
:104380007B685B687A6812681A607B687A685A6032
:104390007B685A687B681A6000BF0C37BD465DF8C1
:1043A000047B704780B483B000AF78607B681B6883
:1043B0007A689A420CBF01230023DBB218460C37FF
:1043C000BD465DF8047B704780B582B000AF786071
:1043D0007B6814331846FFF787FF00231846083719
:1043E000BD4680BD80B588B000AFF860B9603B6065
:1043F0001346FB71BB6893F8343003F00403002BC1
:1044000009D13968B86803F0B5FDB861BB69002B04
:1044100001D0BB693FE0FB79002B02D0012B07D014
:1044200031E0BB6814331946F868FFF787FF31E0C5
:10443000FB681B68FB6117E0FB69143B7B61BB6891
:1044400093F835207B6993F835309A4209D27B691D
:1044500003F11402BB68143319461046FFF76EFFD0
:1044600006E0FB691B68FB61FA69FB689A42E3D1CD
:10447000FA69FB689A420CD1BB6814331946F86894
:10448000FFF75CFF05E0B0220549064802F04EF850
:1044900000E000BF002318462037BD4680BD00BFA6
:1044A000947905009874050080B584B000AF7860F9
:1044B0007B681B68143BFB60FB6800221A63F8688A
:1044C00003F0C6FD002318461037BD4680BDFFFF30
:1044D00080B584B000AFF860B9607A60FB70FB68AB
:1044E000002B05D140F239121749184802F01EF886
:1044F0007B68B3F5803F05D34FF49D721249144891
:1045000002F014F8FB78002B08D0FB78012B05D0C3
:1045100040F23B120C490F4802F008F8FB68BA68F9
:104520000221184602F03CFCFB681846FFF74CFFDE
:104530007B689AB2FB689A83FB68FA785A72002308
:1045400018461037BD4680BD787905009C7405007B
:10455000AC740500C074050080B58AB000AFF86087
:10456000B9607A60FB68002B05D140F2F7125B4915
:104570005B4801F0DBFFFB68184602F069FD03466B
:10458000022B05D04FF4FC725449564801F0CEFF7F
:10459000554B1B68002B04D0534B1B68FA68104620
:1045A0009847FEF79BFF7862FB689B8B002B09D036
:1045B000FB689B8B013B9AB2FB689A83786AFEF793
:1045C00091FF7CE0BB68002B05D1786AFEF78AFF7B
:1045D0006FF001037DE0FEF781FF386203F07AF8A7
:1045E0000346002B09D03D49404801F041FE4FF4FD
:1045F00006723A493E4801F099FFFEF76FFFF861F5
:1046000003F0D0F90346002B09D13449394801F0B1
:104610002FFE4FF406723149354801F087FFFEF74F
:104620005DFFB86100F0DAFE0346002B09D02B498C
:10463000314801F01DFE4FF4067228492C4801F064
:1046400075FFB869FEF74EFFF869FEF74BFF386A51
:10465000FEF748FF03F0A6F978617B696FF0080266
:104660001A63FB6803F11400FB685A7A7B68796966
:10467000FFF7B8FE38613B69002B04D0786AFEF77B
:1046800031FF3B6925E0BB68002B0CDD7B695833AB
:1046900007F108020021184603F0D2FF7B69583366
:1046A000184603F073FE786AFEF71CFF02F05EFE08
:1046B0007B691B6B002B02D07B691B6B09E00F4BE6
:1046C0001B68002B04D00D4B1B68FA6810469847F6
:1046D000002318462837BD4680BD00BF84790500F9
:1046E0009C740500FC740500780F0020D875050047
:1046F0009874050004760500747505007C0F002091
:1047000080B582B000AF786039600222396878687D
:10471000FFF722FF034618460837BD4680BDFFFF5E
:1047200080B584B000AF78607B68002B05D140F283
:1047300085222749274801F0F9FE7B68184602F0D8
:1047400087FC0346022B05D040F2862220492248EE
:1047500001F0ECFE214B1B68002B04D01F4B1B68A3
:104760007A68104698470023FB60FEF7B7FEB860F2
:104770007B6814331846FFF715FE0346002B07D15C
:104780007B6814331846FFF78FFE0123FB6012E0AD
:104790007B689B8B4FF6FF72934206D07B689B8BA6
:1047A00001339AB27B689A8305E0B868FEF79AFEF7
:1047B0006FF0020308E0B868FEF794FEFB68012B77
:1047C00001D102F0D3FD002318461037BD4680BD4D
:1047D000A87905009C740500FC740500800F00207A
:1047E00080B584B000AF78607B6814331846FFF75B
:1047F000D9FD0346002B09D17B685B69143BFB6044
:10480000FB6893F835207B685A7702E07B68FF22CB
:104810005A777B685B7F18461037BD4680BD80B4F1
:1048200087B000AF786000237B610023FB607B686A
:1048300093F83630FB747B68DB6B7B6115E07B693A
:10484000243BFB60FB685B7FFB72FB681B7FFA7A93
:10485000934228BF1346FB72FA7CFB7A9A4201D935
:10486000FB7AFB747B691B687B617B683C337A69EC
:104870009A42E4D1FB7C18461C37BD465DF8047BA8
:10488000704780B588B000AFF8600B467A60FB7265
:1048900007F10B031A460221F86803F0A7FAFB6838
:1048A00093F8343003F00403002B39D0FB685B6CC1
:1048B000FB61FB69002B33D0F86902F0C9FB0346AA
:1048C000032B2DD1FB69BB61FB6814331846FFF73E
:1048D0004EFDBB6903F11400BB695A7A7B68F96825
:1048E000FFF780FD78617B69002B18D1B869FFF76D
:1048F00077FFBB691B6A1846FFF791FF0346FB74FD
:10490000BB691B6A93F83530FA7C9A4208D0BB69C0
:104910001B6AF97C7A681846FFF7B3FF00E000BF16
:104920002037BD4680BDFFFF80B584B000AFF86082
:10493000B9601346FB71FB68002B05D140F267326A
:104940001349144801F0F2FDFB68BA6803211846C8
:1049500002F026FAFB681846FFF736FDFB680022D6
:104960001A62FB68FF225A77FB6800229A77FB687D
:10497000FF221A77FB6824331846FFF7B5FCFB6863
:1049800001225A72002318461037BD4680BD00BF71
:10499000B87905003C76050080B586B000AF786038
:1049A000396000237B613B6814331846FFF7DFFC56
:1049B0007B681B6A93F835203B6893F835309A4240
:1049C00001D101237B617B6814331846FFF7EAFCB1
:1049D0000346002B09D17B685B69143B3B613B6953
:1049E00093F835207B685A7702E07B68FF225A777C
:1049F0007B69002B14D07B681B6A1846FFF70FFFFA
:104A00000346FB737B681B6A93F83530FA7B9A4246
:104A100006D07B681B6AF97B02221846FFF731FF3C
:104A200000BF1837BD4680BD80B58EB000AFF860BE
:104A3000B9607A60FEF752FDF86202F04BFE034661
:104A4000002B09D0A449A54801F012FC40F28F4286
:104A5000A149A34801F06AFDFEF740FDB86202F0EB
:104A6000A1FF0346002B09D19B499E4801F000FCA1
:104A700040F28F4298499A4801F058FDFEF72EFD0A
:104A8000786200F0ABFC0346002B09D092499648AF
:104A900001F0EEFB40F28F428F49914801F046FD54
:104AA000786AFEF71FFDB86AFEF71CFDF86AFEF78C
:104AB00019FDFB68002B05D140F2924286498B48D4
:104AC00001F034FDFB68184602F0C2FA0346032BDE
:104AD00005D040F293428049854801F027FD02F05D
:104AE00061FF3862FEF7FAFC3863824B1B68002BCB
:104AF00004D0804B1B68FA68104698473B6A002236
:104B00001A63FB681B6A3A6A9A4210D1FB689B7F62
:104B1000FF2B06D0FB689B7F0133DAB2FB689A77E4
:104B2000C9E0386BFEF7DEFC6FF00203D0E0FB68F3
:104B30001B6A002B26D1FB683A6A1A62FB68FF22C7
:104B40005A77FB6801229A77FB681B7FFF2B0FD0F7
:104B5000FB681A7FFB681B6A93F835309A4207D2CC
:104B6000FB68186AFB681B7F7A681946FFF789FEA5
:104B70003B6A03F13C02FB68243319461046FFF7F9
:104B8000C4FB98E0BB68002B09D13B6A6FF00102BF
:104B90001A63386BFEF7A6FC6FF0010398E03B6ADE
:104BA00093F83530FB77FB6803F11400FB685A7A01
:104BB0007B68396AFFF716FCB861BB69002B04D02B
:104BC000386BFEF78FFCBB6982E0FA683B6A5A6477
:104BD000FB685B7FFA7F9A4211D2FB68FA7F5A77B3
:104BE000FB685A7FFB681B6A93F835309A4206D2FD
:104BF000FB681B6AF97F02221846FFF742FEBB687A
:104C0000002B0CDD3B6A583307F1080200211846DF
:104C100003F016FD3B6A5833184603F0B7FB386BB8
:104C2000FEF760FC02F0A2FBFEF758FC38633B6A1B
:104C30001B6B002B3FD000237B63FB681B6A93F840
:104C400035203B6A93F835309A4201D101237B63CA
:104C5000FB6814331846FFF7A5FB0346002B09D168
:104C6000FB685B69143B7B617B6993F83520FB68CB
:104C70005A7702E0FB68FF225A777B6B002B14D037
:104C8000FB681B6A1846FFF7CAFD0346FB77FB6803
:104C90001B6A93F83530FA7F9A4206D0FB681B6A8C
:104CA000F97F02221846FFF7ECFD386BFEF71AFC7D
:104CB0003B6A1B6B0CE0386BFEF714FC0E4B1B6859
:104CC000002B04D00C4B1B68FA6810469847002351
:104CD00018463837BD4680BDC8790500D87505002F
:104CE0009874050004760500747505003C7605008F
:104CF00050760500780F00207C0F002080B582B030
:104D000000AF78603960022239687868FFF78CFE5E
:104D1000034618460837BD4680BDFFFF80B58AB000
:104D200000AF78607B68002B05D140F281526B495F
:104D30006B4801F0FBFB7B68184602F089F90346DB
:104D4000032B05D040F282526449664801F0EEFB25
:104D500000237B62FEF7C2FB386202F023FE0346AB
:104D6000002B09D15D49604801F082FA40F2875278
:104D70005A495E4801F0DAFBFEF7B0FBF86100F03B
:104D80002DFB0346002B09D05449594801F070FA15
:104D900040F287525149554801F0C8FBF869FEF7C7
:104DA000A1FB386AFEF79EFB02F0FCFDB861FEF73E
:104DB00095FB78614F4B1B68002B04D04D4B1B6853
:104DC0007A68104698477B681B6ABA699A4209D08C
:104DD000BB694FF0FF321A637869FEF783FB4FF02F
:104DE000FF3376E07B689B7F013BDAB27B689A7782
:104DF0007B689B7F002B63D17B6824331846FFF7C9
:104E0000B6FA7B681B7FFF2B06D1BB6993F8352070
:104E10007B685B7F9A420FD1FF23FB72B869FFF773
:104E2000FEFC0346FB7207F10B031A460221B86928
:104E300002F0DCFF01237B627B6814331846FFF726
:104E4000B1FA0346002B35D17B685B69143B3B61AB
:104E50003B6914331846FFF78AFA7B683A691A628D
:104E60007B6801229A773B6903F13C027B6824331B
:104E700019461046FFF749FA3B6900225A6438691F
:104E800003F0E6F87B6814331846FFF78BFA034605
:104E9000002B09D17B685B69143BFB60FB6893F8CE
:104EA00035207B685A7702E07B68FF225A7701231E
:104EB0007B6205E07B6800221A627B68FF225A77DA
:104EC0007869FEF70FFB7B6A012B01D102F04EFAE5
:104ED000002318462837BD4680BD00BFD87905009D
:104EE0003C760500507605000476050098740500B0
:104EF00074750500800F002080B584B000AFF860A5
:104F0000B9601346FB71FB68002B05D140F23A6291
:104F10001249134801F00AFBFB79002B08D0FB79FA
:104F2000012B05D040F23B620C490E4801F0FEFA1D
:104F3000FB68BA680421184601F032FFFB68FA7971
:104F40005A72FB681846FFF73FFAFB680022DA61E5
:104F5000002318461037BD4680BD00BFEC79050020
:104F600008770500C074050080B588B000AF786090
:104F700039607B68002B05D140F2EA624E494F4808
:104F800001F0D4FA7B68184602F062F80346042B5D
:104F900005D040F2EB624849494801F0C7FA3B6846
:104FA000002B02D14FF0FF3381E000237B61FEF73D
:104FB00095FA38617B68DA693B681A437B68DA6185
:104FC000404B1B68002B04D03E4B1B687A68104690
:104FD00098477B6814331846FFF7E4F90346002B23
:104FE0005CD17B685B69FB6153E0FB69143BFB6050
:104FF0004FF0FF33BB61FB6893F84C3003F00103C3
:10500000002B0BD0FB689A6C7B68DB691A40FB684D
:105010009B6C9A4220D10023BB611DE0FB6893F892
:105020004C3003F00203002B10D0FB689A6C7B68B5
:10503000DB691340002B0FD0FB689A6C7B68DB693F
:105040001A40FB689A640023BB6105E03869FEF7EB
:1050500049FA6FF009032AE0FB691B68FB61BB6931
:10506000002B16D1FB6893F84C3003F00403002B9F
:1050700007D07B68DA69FB689B6CDB431A407B686E
:10508000DA61F86802F0E4FFFB6800221A6301238A
:105090007B617B681433FA699A42A6D13869FEF7BE
:1050A00021FA7B69012B01D102F060F90023184637
:1050B0002037BD4680BD00BFFC790500087705009C
:1050C0001C770500800F002080B58CB000AFF86021
:1050D000B9603B601346FB71FB68002B05D140F2C1
:1050E0006C728949894801F021FAFB68184601F081
:1050F000AFFF0346042B05D040F26D72824984480D
:1051000001F014FAFEF7EAF9786202F0E3FA0346D6
:10511000002B09D07C497F4801F0AAF84FF4EE62D9
:1051200079497D4801F002FAFEF7D8F9386202F0B9
:1051300039FC0346002B09D17349784801F098F8EF
:105140004FF4EE627049744801F0F0F9FEF7C6F9C9
:10515000F86100F043F90346002B09D06A49704812
:1051600001F086F84FF4EE6267496B4801F0DEF912
:10517000F869FEF7B7F9386AFEF7B4F9786AFEF70E
:10518000B1F9BB68002B02D14FF0FF33B7E04FF00D
:10519000FF33BB6202F006FCB861BB696FF0080226
:1051A0001A63604B1B68002B04D05E4B1B68FA68C7
:1051B00010469847FEF792F9F862FB7903F0010375
:1051C000002B09D0FB68DA69BB681340BA689A42C1
:1051D00016D10023BB6213E0FB7903F00203002B1E
:1051E00008D0FB68DA69BB681340002B08D00023A5
:1051F000BB6205E040F28F724349474801F096F9DF
:10520000BB6A002B22D1BB6900221A63BB6B002B47
:1052100005D0FB68DA69BB681A40BB6B1A60FB6893
:10522000DA69BB681A40BB699A64BB69FA7983F88A
:105230004C20FB7903F00403002B52D0FB68DA69A1
:10524000BB68DB431A40FB68DA614AE03B68002B2D
:1052500009D1BB696FF001021A63F86AFEF742F9DF
:105260006FF001034BE0BB69BA689A64BB69FA79D5
:1052700083F84C20FB6803F11400FB685A7AFB6B3F
:10528000B969FFF7AFF878617B69002B04D0F86A41
:10529000FEF728F97B6932E03B68002B0BDDBB6928
:1052A00058333A460021184603F0CAF9BB6958330F
:1052B000184603F06BF8F86AFEF714F902F056F896
:1052C000BB691B6B002B02D0BB691B6B17E0FEF7A1
:1052D00005F9F862BB6B002B03D0BB699A6CBB6B02
:1052E0001A60F86AFEF7FEF80F4B1B68002B04D01B
:1052F0000D4B1B68FA6810469847BB691B6B184634
:105300003037BD4680BD00BF0C7A05000877050028
:105310001C770500D8750500987405000476050013
:1053200074750500780F00207C0F002080B586B0D2
:1053300002AFF860B9603B601346FB71FA79022353
:105340000193BB6900933B68B968F868FFF7BCFE3E
:10535000034618461037BD4680BDFFFF80B582B0BA
:1053600000AFFEF7BBF878600A4B1B78DBB2013365
:10537000DAB2084B1A70084B1B68002B02D0064BA0
:105380001B6898477868FEF7ADF800BF0837BD4640
:1053900080BD00BFA80E0020A00E002080B582B006
:1053A00000AFFEF79BF878600A4B1B68002B02D019
:1053B000084B1B689847084B1B78DBB2013BDAB2FD
:1053C000054B1A707868FEF78DF800BF0837BD46A8
:1053D00080BD00BFA40E0020A80E002080B582B0C2
:1053E00000AFFEF77BF87860054B1B78FB707868A0
:1053F000FEF778F8FB7818460837BD4680BD00BF39
:10540000A80E002080B483B000AF78607B68002BCA
:1054100002DA7B685B427B607B680B2B02DD064B0C
:10542000DB6A03E0044A7B6852F8233018460C37E5
:10543000BD465DF8047B7047A401002080B584B0B0
:1054400000AF78600023FB60FFF7C8FF0346002B26
:1054500003D00A4A7B6813600CE002F0A3FAF860FC
:10546000FB68002B03D1054A7B68136002E0FB68F0
:105470007A681A631037BD4680BD00BFAC0E0020AD
:1054800080B582B000AF00237B60FFF7A7FF034623
:10549000002B01D0074B09E002F084FA78607B68AA
:1054A000002B02D07B68303300E0024B18460837EF
:1054B000BD4680BDAC0E002080B48BB000AFF8605C
:1054C000B9607A6000237B62FB683B6200237B61EA
:1054D0000023FB61BB68FB767B68032B44D9FB6828
:1054E00003F00303002B3FD1FB68FB6100237B62C9
:1054F00008E007F114027B6A1344FA7E1A707B6A93
:1055000001337B627B6A032BF3D916E0FB691A1D1A
:10551000FA617A691A60FB691A1DFA617A691A6080
:10552000FB691A1DFA617A691A60FB691A1DFA6132
:105530007A691A607B68103B7B607B680F2BE5D82B
:1055400007E0FB691A1DFA617A691A607B68043BFF
:105550007B607B68032BF4D8FB693B6204E03B6A09
:105560005A1C3A62FA7E1A707B685A1E7A60002BC7
:10557000F5D1FB6818462C37BD465DF8047B7047B3
:1055800080B48BB000AFF860B9607A60FB687B6272
:10559000BB683B620023FB610023BB617B687B61CE
:1055A0007B690F2B4DD93A6A7B6A134303F00303DF
:1055B000002B46D17B6AFB613B6ABB6122E0BA6982
:1055C000131DBB61FB69191DF96112681A60BA6984
:1055D000131DBB61FB69191DF96112681A60BA6974
:1055E000131DBB61FB69191DF96112681A60BA6964
:1055F000131DBB61FB69191DF96112681A607B6993
:10560000103B7B617B690F2BD9D80AE0BA69131D67
:10561000BB61FB69191DF96112681A607B69043B63
:105620007B617B69032BF1D8FB697B62BB693B62C1
:1056300007E03A6A531C3B627B6A591C7962127814
:105640001A707B695A1E7A61002BF2D1FB681846EA
:105650002C37BD465DF8047B704780B487B000AF3F
:10566000F860B9607A60FB687B61BB683B613A694E
:105670007B699A4226D23A697B6813447A699A42D6
:1056800020D27A697B6813447B613A697B68134452
:105690003B6109E03B69013B3B617B69013B7B610D
:1056A0003B691A787B691A707B685A1E7A60002BF6
:1056B000F0D10CE03A69531C3B617B69591C79615C
:1056C00012781A707B685A1E7A60002BF2D1FB6840
:1056D00018461C37BD465DF8047B704780B487B020
:1056E00000AFF860B9607A607B68002B21D0FB685E
:1056F0007B61BB683B613A69531C3B617B69591C08
:10570000796112781A701B78002B0CD104E07B6948
:105710005A1C7A6100221A707B68013B7B607B68AF
:10572000002BF4D105E07B68013B7B607B68002B9C
:10573000E1D1FB6818461C37BD465DF8047B704715
:1057400080B487B000AFF860B9607A600023FB7561
:1057500015E0FB681A78BB68591CB9601B78D31A2E
:10576000DBB2FB7597F91730002B0BD1FB685A1C85
:10577000FA601B78002B05D07B68013B7B607B685F
:10578000002BE6D197F9173018461C37BD465DF857
:10579000047B704780B483B000AF7860396005E067
:1057A0007B6801337B603B6801333B607B681B781F
:1057B000002B05D07B681A783B681B789A42EFD0A3
:1057C0007B681B781A463B681B78D31A18460C373F
:1057D000BD465DF8047B704780B485B000AF78604B
:1057E0000023FB607B68FB6002E0FB680133FB6029
:1057F000FB681B78002BF8D1FA687B68D31A18462F
:105800001437BD465DF8047B7047FFFF80B582B05A
:1058100002AF0B4800F02CFD0A4800F029FD0A4BAE
:1058200001930A4B0093012300220521084800F050
:105830001FFD084800F01CFD00BFBD4680BD00BF35
:10584000EC7A0500F87A0500407B05004C7B0500EA
:105850001C7B0500587B050080B485B000AF7860E4
:1058600039607B681B683A68B3FBF2F101FB02F216
:105870009B1AFB607B681A683B68B2FBF3F27B689B
:105880001A60FB6818461437BD465DF8047B704704
:1058900080B485B000AF78600023FB600EE0FA684A
:1058A00013469B0013445B0018467B681B68591C19
:1058B0007A6811601B780344303BFB607B681B688F
:1058C0001B78303B092BEAD9FB6818461437BD46D4
:1058D0005DF8047B7047FFFF80B592B000AFF860C1
:1058E000B9607A603B60002387F83B30002387F87B
:1058F000473000233B6107F1140300221A605A600D
:105900009A60DA601A615A619A61BB6D7B63002309
:105910003B6300233B640023FB637B6DFB63FB6DF8
:1059200003F04003002B01D0934B00E0934B3B630B
:10593000FB6D03F01003002B03D0FB6D23F001037C
:10594000FB65FB6D03F00103002B01D0302300E069
:10595000202387F83B30002387F84730FB6D03F0A6
:105960000203002B46D03B6D6C2B15D03B6D6C2B8E
:105970001CDC3B6D4C2B0FD03B6D682B16D17B682C
:105980001BB2002B1CDA2D2387F847307B689BB2B3
:105990005B429BB27B6013E07B68002B12DA2D2305
:1059A00087F847307B685B427B600BE07B68002BAD
:1059B0000ADA2D2387F847307B685B427B6003E07F
:1059C00000BF02E000BF00E000BF97F847302D2B7A
:1059D00010D0FB6D03F00403002B03D02B2387F8BA
:1059E000473007E0FB6D03F00803002B02D02023B3
:1059F00087F84730FB6D03F02003002B0FD03B6886
:105A0000022B02D03B68102B03D1FB6B023BFB63E4
:105A100005E03B68082B02D1FB6B013BFB630023D5
:105A20003B647B68002B19D13B6C5A1C3A644833A9
:105A30003B44302203F8382C13E03B1D39681846EC
:105A4000FFF70AFF03461A463B6B1A443B6C591C8E
:105A50003964127848333B4403F8382C7B68002BB8
:105A6000EBD13A6CBB6D9A4201DD3B6CBB65FA6BC6
:105A7000BB6DD31AFB63FB6D03F01103002B19D12F
:105A800097F84730002B10D0FB6B002B0DDDFB6B24
:105A9000013BFB6309E0FA68BB689A4202D2FB68EB
:105AA00020221A70FB680133FB60FB6B5A1EFA63FD
:105AB000002BF0DC97F84730002B0DD0FA68BB685C
:105AC0009A4203D2FB6897F847201A70FB6B013BA0
:105AD000FB63FB680133FB60FB6D03F02003002BCD
